:04000000FEEF3FF0E0
:100800000000046E04C005F001C006F002C008F04C
:1008100003C009F0236A246A076A0C6A0A6A0B6A31
:100820000D6A20EE05F00001E151200DF350600F3C
:10083000E16EE26A1F0EDBCFE3FFE806FCE2E12B8C
:1008400012003BEC04F0030E016E000E026E000E6F
:10085000036E010E01EC04F03FEC04F02EEF04F007
:10086000FEEF3FF000EE60F0820EEE6AE806FDE17A
:10087000000121EF04F00001E16BE06B120042EC9B
:0608800004F0120012005A
:047FFC0032EF04F06C
:00000001FF
