:1000000000020400000000001603000016030000B8
:10001000160300001603000016030000160300007C
:100020001603000016030000D002000016030000B3
:10003000160300001603000016030000160300005C
:10004000160300001603000016030000160300004C
:10005000160300001603000016030000160300003C
:10006000160300001603000016030000160300002C
:10007000160300001603000016030000160300001C
:10008000160300001603000016030000160300000C
:1000900016030000160300001603000016030000FC
:1000A00016030000160300001603000016030000EC
:1000B00016030000160300001603000016030000DC
:1000C00016030000160300001603000016030000CC
:1000D00016030000160300001603000016030000BC
:1000E00016030000160300001603000016030000AC
:1000F000160300001603000016030000160300009C
:10010000160300001603000016030000160300008B
:10011000160300001603000016030000160300007B
:10012000160300001603000016030000160300006B
:08013000160300001603000095
:100208001603000016030000160300001603000082
:100218001603000016030000160300001603000072
:10022800D0020000160300001603000016030000A9
:100238001603000016030000160300001603000052
:100248001603000016030000160300001603000042
:100258001603000016030000160300001603000032
:100268001603000016030000160300001603000022
:100278001603000016030000160300001603000012
:100288001603000016030000160300001603000002
:1002980016030000160300001603000016030000F2
:1002A80016030000160300001603000016030000E2
:1002B80016030000160300001603000016030000D2
:1002C80016030000160300001603000016030000C2
:1002D80016030000160300001603000016030000B2
:1002E80016030000160300001603000016030000A2
:1002F8001603000016030000160300001603000092
:100308001603000016030000160300001603000081
:100318001603000016030000160300001603000071
:100328001603000016030000160300001603000061
:100400006F8020000E7F22000E0188000000000097
:10041000000020000000E000020032000001200087
:100420002002880014000700820007000000E0009E
:1004300003003A00A03C2000010020000200370029
:100440000000200001002000810F70000100320038
:1004500014000700000020000000E000020032004D
:1004600000000200000000001C0302000000000069
:100470000040DA000000FE004440A9000000200017
:100480000000E0000300320000002000A00188000E
:100490004440A800000006008A1F78008B1F7800E7
:1004A0000000060091018800800478000000EB0045
:1004B0001A003700E284440032A0B4009905BA0063
:1004C000E284440032A0B4009906BA00E2844400F9
:1004D00032A0B4000006EB00476FDE00FD07B2005B
:1004E000636CE10003003A00EBFF07000000EB0043
:1004F0000A003700606CE10004003A00005DEB0088
:100500008B05E900FDFF3E00040037006168E10053
:10051000010032000086EB000B00070019C7BA008B
:100520001905BA000E04E00003003A000A00E000DA
:10053000E0FF3A0000000600FE07B2009E018800BE
:100540008A047800F5FF3700395DBA008B05E900B1
:100550000C003200295DBA008B05E900080032006A
:100560000C00E00003003A00E284440032A0B40032
:10057000F5FF370019DDBA008B05E900FAFF3A00F4
:100580008904E800E184440032A0B40000000600C1
:1005900038030400000000005603040000000000BF
:1005A0003600F800809FBE00829FBE00849FBE0080
:1005B000869FBE003400F80000002000A0018800E3
:1005C0000000FA00204080008000400000802000F1
:1005D00000804000100078000000010020408000F2
:1005E0008000E80010002800008060000000E000AB
:1005F00004003D000000E900E1FF2F0000807000D2
:100600000000E800204088008400A9000080FA0073
:100610003400F9004F03BE004F02BE004F01BE0080
:100620004F00BE003600F900004006000040DA002E
:100630000000FE00000005000000FA0006000700B0
:100640004000070080332000004088006035200013
:1006500010408800FFFF37000000FA00CDC2A9005B
:10066000CDE2A900D802A9000080FA00000006002F
:100670000000FA00701680004E00DE00614060004D
:1006800000C0EA00614060000080FB006100600083
:100690004E00DD008116800001E0A1000100700025
:1006A000801688000080FA00000006000000FA00B2
:1006B000D0168000004078006140600000C0EA0071
:1006C000614060000080FB0061006000E116800076
:1006D0000100A10001007000E01688000080FA000F
:1006E000000006000000FA000017800061006000B2
:1006F0000000E00011003200204080008000400037
:100700000080200000804000100078000000010000
:10071000204080008000E800100028000080600079
:100720000000E00004003D000000E900E1FF2F00B0
:10073000008070000000E800204088000080FA007F
:10074000000006000000FA0011028000F0F12F0006
:10075000008060000070A000100288008200A900E4
:100760008400A9009400A8002105800080FF2F00CC
:10077000008060000020A000200588000600FC002A
:1007800011028000F141B200110288000080FA00DD
:100790000000060000080000060000000000000045
:0407A0000000000055
:00000001FF
