:100000000002040000000000D0020000D002000046
:10001000D0020000D0020000D0020000D002000098
:10002000D0020000D0020000D0020000D002000088
:10003000D0020000D0020000D0020000D002000078
:10004000D0020000D0020000D0020000D002000068
:100400006F8020000E7F22000E0188000000000097
:10041000000020000000E000020032000001200087
:1004200020028800140007005F0007000000E000C1
:1004300003003A004038200001002000020037008D
:100440000000200001002000810F70000100320038
:1004500014000700000020000000E000020032004D
:100460000000020000000000D602020000000000B0
:100470000040DA000000FE004440A9000000200017
:100480000000E0000300320000002000A00188000E
:100490004440A800000006008A1F78008B1F7800E7
:1004A0000000060091018800800478000000EB0045
:1004B0001A003700E284440032A0B4009905BA0063
:1004C000E284440032A0B4009906BA00E2844400F9
:1004D00032A0B4000006EB00476FDE00FD07B2005B
:1004E000636CE10003003A00EBFF07000000EB0043
:1004F0000A003700606CE10004003A00005DEB0088
:100500008B05E900FDFF3E00040037006168E10053
:10051000010032000086EB000B00070019C7BA008B
:100520001905BA000E04E00003003A000A00E000DA
:10053000E0FF3A0000000600FE07B2009E018800BE
:100540008A047800F5FF3700395DBA008B05E900B1
:100550000C003200295DBA008B05E900080032006A
:100560000C00E00003003A00E284440032A0B40032
:10057000F5FF370019DDBA008B05E900FAFF3A00F4
:100580008904E800E184440032A0B40000000600C1
:10059000F202040000000000160304000000000046
:1005A0000040DA000000FE00000005000000FA0034
:1005B00006000700202F2000004088006031200046
:1005C000104088002A000700FEFF37000000FA00F4
:1005D000CDC2A900CDE2A900D802A9000080FA008E
:1005E000000006000000FA00701680004E00DE00D9
:1005F0006140600000C0EA00614060000080FB00D4
:10060000610060004E00DD008116800001E0A10065
:10061000010070008016880000122A00710020007E
:100620002B0007000080FA00000006000000FA001E
:10063000D0168000004078006140600000C0EA00F1
:10064000614060000080FB0061006000E1168000F6
:100650000100A10001007000E016880000122A00CD
:10066000710020001A0007000080FA000000060058
:100670000000FA0000178000610060000000E00048
:1006800011003200204080008000400000802000E7
:100690000080400010007800000001002040800031
:1006A0008000E80010002800008060000000E000EA
:1006B00004003D000000E900E1FF2F000080700011
:1006C0000000E800204088000080FA0000000600DA
:1006D000F03FB1000180B10006003500EE030900D3
:1006E00000000000403FB1000180B100FBFF3D0071
:1006F0001000B000203FB00002003500008009006B
:1007000000000000000006000008000006000000D5
:080710000000000000000000E1
:00000001FF
