:0400000006EF00F017
:0C0008000DED07F014EE87F065EF12F02C
:100800000000F29EB8C1D9FFB9C1DAFFDF50D8A409
:100810000CEF04F00EEF04F021EF04F0B8C1D9FFA3
:10082000B9C1DAFF010EDF6E24EE83F0010100EEA4
:1008300001F0B851E926B951EA22DFCFEFFF8DEF81
:1008400005F0010120EE06F0B851D926B951DA229F
:10085000040EDF602EEF04F030EF04F04FEF04F0F1
:1008600024EE83F000EE06F0B851E926B951EA22F1
:10087000EF50BA6FBA51B825BB6F000EB921BC6FEB
:10088000020EBB25E96E000EBC21EA6EDFCFEFFF42
:1008900020EE06F0B851D926B951DA22DF2A83C4F6
:1008A000BAF1BA516B0D6C0EF324BB6F020EF4203B
:1008B000BC6FBBC185F4BCC186F424EE85F000EEAC
:1008C00002F0DE50E926DD50EA22EE04D8A46BEFF8
:1008D00004F06DEF04F0DBEF04F024EE85F000EEA1
:1008E00009F0DE50E926DD50EA22E0CFEFFF24EEEA
:1008F00085F000EE08F0DE50E926DD50EA22D8CF80
:10090000EFFF24EE85F000EE07F0DE50E926DD5023
:10091000EA22E8CFEFFF24EE85F000EE6AF0DE5029
:10092000E926DD50EA22EF6A24EE85F000EE02F0BF
:10093000DE50E926DD50EA22020EEF6ED3EF04F01E
:1009400024EE85F000EE6AF0DE50E926DD50EA2262
:10095000EF500101BA6FBA51030DF3CFBBF1F4CFE1
:10096000BCF124EE85F0DECFBDF1DDCFBEF1BB5191
:10097000BD25BF6FBC51BE21C06F0A0EBF25D96E09
:10098000000EC021DA6EFDCFDEFFFECFDEFFFFCF0F
:10099000DEFF24EE85F000EE6AF0DE50E926DD5041
:1009A000EA22EF2A0600FC50D8A4D9EF04F0DBEFCE
:1009B00004F0A0EF04F015EC13F083C4BAF10101C8
:1009C000BA516B0D6C0EF324BB6F020EF420BC6F9A
:1009D000BBC185F4BCC186F424EE85F000EE02F0C4
:1009E000DE50E926DD50EA22EF50D8A4FAEF04F0F9
:1009F000FCEF04F08DEF05F0FC6A24EE85F000EECC
:100A00006AF0DE50E926DD50EA22EF50D8B40BEF51
:100A100005F00DEF05F071EF05F024EE85F000EE26
:100A200009F0DE50E926DD50EA22EF50E06E24EEB8
:100A300085F000EE08F0DE50E926DD50EA22EF50A6
:100A4000D86E24EE85F000EE07F0DE50E926DD508A
:100A5000EA22EF50BA6FBA51050024EE85F000EE9D
:100A60006AF0DE50E926DD50EA22EF0624EE85F03A
:100A700000EE6AF0DE50E926DD50EA22EF50010177
:100A8000BA6FBA51030DF3CFBBF1F4CFBCF124EE32
:100A900085F0DECFBDF1DDCFBEF1BB51BD25BF6F0F
:100AA000BC51BE21C06F0A0EBF25D96E000EC021F9
:100AB000DA6EDECFFDFFDECFFEFFDDCFFFFF24EEDF
:100AC00085F000EE6AF0DE50E926DD50EA22EF50B4
:100AD000D8A46DEF05F06FEF05F02CEF05F083EF74
:100AE00005F0050024EE85F000EE03F0DE50E92667
:100AF000DD50EA22EECFBAF1EDCFBBF1BAC1FDFF76
:100B0000BBC1FEFFFF6A24EE85F000EE02F0DE506E
:100B1000E926DD50EA22010EEF6EF28E1200F29EFF
:100B20009CC1D9FF9DC1DAFFDE06000EDD5A9CC1D3
:100B3000D9FF9DC1DAFF010EDBBEA3EF05F0A1EFE7
:100B400005F00BEF07F024EE83F0010100EE06F054
:100B50009C51E9269D51EA22EF509E6F9E519C25A3
:100B60009F6F000E9D21A06F020E9F25E96E000E63
:100B7000A021EA6EDFCFEFFF20EE06F09C51D926D0
:100B80009D51DA2200EE06F09C51E9269D51EA22A1
:100B9000EF509E6F9E29030BDF6E83C49EF19E5122
:100BA0006B0D6C0EF3249F6F020EF420A06F9FC19B
:100BB00085F4A0C186F424EE85F000EE02F0DE504C
:100BC000E926DD50EA22EE04D8A4E9EF05F0EBEFC8
:100BD00005F059EF06F024EE85F000EE09F0DE5046
:100BE000E926DD50EA22E0CFEFFF24EE85F000EEAB
:100BF00008F0DE50E926DD50EA22D8CFEFFF24EEE0
:100C000085F000EE07F0DE50E926DD50EA22E8CF5D
:100C1000EFFF24EE85F000EE6AF0DE50E926DD50AD
:100C2000EA22EF6A24EE85F000EE02F0DE50E926BB
:100C3000DD50EA22030EEF6E51EF06F024EE85F050
:100C400000EE6AF0DE50E926DD50EA22EF500101A5
:100C50009E6F9E51030DF3CF9FF1F4CFA0F124EED0
:100C600085F0DECFA1F1DDCFA2F19F51A125A36FC9
:100C7000A051A221A46F0A0EA325D96E000EA421B3
:100C8000DA6EFDCFDEFFFECFDEFFFFCFDEFF24EE0C
:100C900085F000EE6AF0DE50E926DD50EA22EF2A08
:100CA0000600FC50D8A457EF06F059EF06F01EEFEF
:100CB00006F015EC13F083C49EF101019E516B0DFB
:100CC0006C0EF3249F6F020EF420A06F9FC185F479
:100CD000A0C186F424EE85F000EE02F0DE50E92695
:100CE000DD50EA22EF50D8A478EF06F07AEF06F054
:100CF0000BEF07F0FC6A24EE85F000EE6AF0DE50A0
:100D0000E926DD50EA22EF50D8B489EF06F08BEFE8
:100D100006F0EFEF06F024EE85F000EE09F0DE506D
:100D2000E926DD50EA22EF50E06E24EE85F000EE79
:100D300008F0DE50E926DD50EA22EF50D86E24EEAE
:100D400085F000EE07F0DE50E926DD50EA22EF5094
:100D50009E6F9E51050024EE85F000EE6AF0DE5095
:100D6000E926DD50EA22EF0624EE85F000EE6AF077
:100D7000DE50E926DD50EA22EF5001019E6F9E51C0
:100D8000030DF3CF9FF1F4CFA0F124EE85F0DECF79
:100D9000A1F1DDCFA2F19F51A125A36FA051A22106
:100DA000A46F0A0EA325D96E000EA421DA6EDECF41
:100DB000FDFFDECFFEFFDDCFFFFF24EE85F000EE6E
:100DC0006AF0DE50E926DD50EA22EF50D8A4EBEFBE
:100DD00006F0EDEF06F0AAEF06F001EF07F00500D0
:100DE00024EE85F000EE03F0DE50E926DD50EA2225
:100DF000EECF9EF1EDCF9FF19EC1FDFF9FC1FEFFA3
:100E0000FF6A24EE85F000EE02F0DE50E926DD50A8
:100E1000EA22010EEF6EF28E12000600E9CF2EF0EC
:100E2000EACF2FF0E1CF30F0E2CF31F0D9CF32F07E
:100E3000DACF33F0F3CF34F0F4CF35F001C036F031
:100E40000CC037F016EE44F093EC11F0F2A42BEF47
:100E500007F02DEF07F06EEF08F0F294000ED76E5A
:100E6000000ED66E1CEC10F083C427F027506B0DDB
:100E70006C0EF324286E020EF420296E28C085F42F
:100E800029C086F424EE85F000EE02F0DE50E9265B
:100E9000DD50EA22EE04D8A450EF07F052EF07F03D
:100EA000BEEF07F024EE85F000EE09F0DE50E926F3
:100EB000DD50EA22E0CFEFFF24EE85F000EE08F0EF
:100EC000DE50E926DD50EA22D8CFEFFF24EE85F090
:100ED00000EE07F0DE50E926DD50EA22E8CFEFFF12
:100EE00024EE85F000EE6AF0DE50E926DD50EA22BD
:100EF000EF6A24EE85F000EE02F0DE50E926DD50C8
:100F0000EA22EF6AB6EF07F024EE85F000EE6AF011
:100F1000DE50E926DD50EA22EF50276E2750030D00
:100F2000F3CF28F0F4CF29F024EE85F0DECF2AF0BD
:100F3000DDCF2BF028502A242C6E29502B202D6E2B
:100F40000A0E2C24D96E000E2D20DA6EFDCFDEFFA6
:100F5000FECFDEFFFFCFDEFF24EE85F000EE6AF06D
:100F6000DE50E926DD50EA22EF2A0600FC50D8A424
:100F7000BCEF07F0BEEF07F084EF07F015EC13F0BD
:100F800083C427F027506B0D6C0EF324286E020EDD
:100F9000F420296E28C085F429C086F424EE85F05B
:100FA00000EE02F0DE50E926DD50EA22EF50D8A430
:100FB000DCEF07F0DEEF07F06EEF08F0FC6A24EEDE
:100FC00085F000EE6AF0DE50E926DD50EA22EF50AF
:100FD000D8B4EDEF07F0EFEF07F052EF08F024EE92
:100FE00085F000EE09F0DE50E926DD50EA22EF50F0
:100FF000E06E24EE85F000EE08F0DE50E926DD50CC
:10100000EA22EF50D86E24EE85F000EE07F0DE50B5
:10101000E926DD50EA22EF50276E2750050024EE26
:1010200085F000EE6AF0DE50E926DD50EA22EF0698
:1010300024EE85F000EE6AF0DE50E926DD50EA226B
:10104000EF50276E2750030DF3CF28F0F4CF29F08F
:1010500024EE85F0DECF2AF0DDCF2BF028502A24B5
:101060002C6E29502B202D6E0A0E2C24D96E000ECA
:101070002D20DA6EDECFFDFFDECFFEFFDDCFFFFFDE
:1010800024EE85F000EE6AF0DE50E926DD50EA221B
:10109000EF50D8A44EEF08F050EF08F00EEF08F034
:1010A00064EF08F0050024EE85F000EE03F0DE505A
:1010B000E926DD50EA22EECF27F0EDCF28F027C059
:1010C000FDFF28C0FEFFFF6A24EE85F000EE02F06F
:1010D000DE50E926DD50EA22010EEF6E37C00CF03B
:1010E00036C001F035C0F4FF34C0F3FF33C0DAFF7F
:1010F00032C0D9FF31C0E2FF30C0E1FF2FC0EAFFAC
:101100002EC0E9FF1100F29E83C4BAF10101BA5169
:101110006B0D6C0EF324BB6F020EF420BC6FBBC1D1
:1011200085F4BCC186F424EE85F000EE02F0DE50BA
:10113000E926DD50EA22EE04D8A4A1EF08F0A3EFDF
:1011400008F011EF09F024EE85F000EE09F0DE5012
:10115000E926DD50EA22E0CFEFFF24EE85F000EE35
:1011600008F0DE50E926DD50EA22D8CFEFFF24EE6A
:1011700085F000EE07F0DE50E926DD50EA22E8CFE8
:10118000EFFF24EE85F000EE6AF0DE50E926DD5038
:10119000EA22EF6A24EE85F000EE02F0DE50E92646
:1011A000DD50EA22020EEF6E09EF09F024EE85F021
:1011B00000EE6AF0DE50E926DD50EA22EF50010130
:1011C000BA6FBA51030DF3CFBBF1F4CFBCF124EEEB
:1011D00085F0DECFBDF1DDCFBEF1BB51BD25BF6FC8
:1011E000BC51BE21C06F0A0EBF25D96E000EC021B2
:1011F000DA6EFDCFDEFFFECFDEFFFFCFDEFF24EE97
:1012000085F000EE6AF0DE50E926DD50EA22EF2A92
:101210000600FC50D8A40FEF09F011EF09F0D6EF4B
:1012200008F083C4BAF10101BA516B0D710EF324B9
:10123000D96E020EF420DA6EB8C1DEFFB9C1DDFF4F
:1012400015EC13F083C4BAF10101BA516B0D6C0EA9
:10125000F324BB6F020EF420BC6FBBC185F4BCC18C
:1012600086F424EE85F000EE02F0DE50E926DD5033
:10127000EA22EF50D8A43FEF09F041EF09F0D2EF96
:1012800009F0FC6A24EE85F000EE6AF0DE50E926F3
:10129000DD50EA22EF50D8B450EF09F052EF09F0D8
:1012A000B6EF09F024EE85F000EE09F0DE50E926F5
:1012B000DD50EA22EF50E06E24EE85F000EE08F0FB
:1012C000DE50E926DD50EA22EF50D86E24EE85F09C
:1012D00000EE07F0DE50E926DD50EA22EF50BA6F4B
:1012E000BA51050024EE85F000EE6AF0DE50E926E2
:1012F000DD50EA22EF0624EE85F000EE6AF0DE50C3
:10130000E926DD50EA22EF500101BA6FBA51030D10
:10131000F3CFBBF1F4CFBCF124EE85F0DECFBDF10D
:10132000DDCFBEF1BB51BD25BF6FBC51BE21C06F2B
:101330000A0EBF25D96E000EC021DA6EDECFFDFF8A
:10134000DECFFEFFDDCFFFFF24EE85F000EE6AF07A
:10135000DE50E926DD50EA22EF50D8A4B2EF09F0C2
:10136000B4EF09F071EF09F0C8EF09F0050024EEC1
:1013700085F000EE03F0DE50E926DD50EA22EECFE4
:10138000BAF1EDCFBBF1BAC1FDFFBBC1FEFFFF6AF1
:1013900024EE85F000EE02F0DE50E926DD50EA2270
:1013A000010EEF6EF28E1200F29E83C4B8F10101BD
:1013B000B8516B0D6C0EF324B96F020EF420BA6FA6
:1013C000B9C185F4BAC186F424EE85F000EE02F0CE
:1013D000DE50E926DD50EA22EE04D8A4F2EF09F04F
:1013E000F4EF09F061EF0AF024EE85F000EE09F069
:1013F000DE50E926DD50EA22E0CFEFFF24EE85F053
:1014000000EE08F0DE50E926DD50EA22D8CFEFFFEB
:1014100024EE85F000EE07F0DE50E926DD50EA22EA
:10142000E8CFEFFF24EE85F000EE6AF0DE50E9260B
:10143000DD50EA22EF6A24EE85F000EE02F0DE5085
:10144000E926DD50EA22EF6A59EF0AF024EE85F032
:1014500000EE6AF0DE50E926DD50EA22EF5001018D
:10146000B86FB851030DF3CFB9F1F4CFBAF124EE50
:1014700085F0DECFBBF1DDCFBCF1B951BB25BD6F2F
:10148000BA51BC21BE6F0A0EBD25D96E000EBE2119
:10149000DA6EFDCFDEFFFECFDEFFFFCFDEFF24EEF4
:1014A00085F000EE6AF0DE50E926DD50EA22EF2AF0
:1014B0000600FC50D8A45FEF0AF061EF0AF026EFB7
:1014C0000AF015EC13F083C4B8F10101B8516B0DAB
:1014D0006C0EF324B96F020EF420BA6FB9C185F413
:1014E000BAC186F424EE85F000EE02F0DE50E92663
:1014F000DD50EA22EF50D8A480EF0AF082EF0AF024
:1015000013EF0BF0FC6A24EE85F000EE6AF0DE507B
:10151000E926DD50EA22EF50D8B491EF0AF093EFBC
:101520000AF0F7EF0AF024EE85F000EE09F0DE5045
:10153000E926DD50EA22EF50E06E24EE85F000EE61
:1015400008F0DE50E926DD50EA22EF50D86E24EE96
:1015500085F000EE07F0DE50E926DD50EA22EF507C
:10156000B86FB851050024EE85F000EE6AF0DE5049
:10157000E926DD50EA22EF0624EE85F000EE6AF05F
:10158000DE50E926DD50EA22EF500101B86FB85174
:10159000030DF3CFB9F1F4CFBAF124EE85F0DECF2D
:1015A000BBF1DDCFBCF1B951BB25BD6FBA51BC2138
:1015B000BE6F0A0EBD25D96E000EBE21DA6EDECFDB
:1015C000FDFFDECFFEFFDDCFFFFF24EE85F000EE56
:1015D0006AF0DE50E926DD50EA22EF50D8A4F3EF9E
:1015E0000AF0F5EF0AF0B2EF0AF009EF0BF0050090
:1015F00024EE85F000EE03F0DE50E926DD50EA220D
:10160000EECFB8F1EDCFB9F1B8C1FDFFB9C1FEFF22
:10161000FF6A24EE85F000EE02F0DE50E926DD5090
:10162000EA22010EEF6EF28E120003EC13F08C949E
:1016300021EE00F001EE8EF0050EDBCFEBFFE806A9
:10164000FCE201019B6B000E956F000E966F000E81
:10165000976F000E986F01019B51020D8E0EF324BF
:10166000D96E010EF420DA6EDECF88F1DDCF89F17C
:1016700088518A6F89518B6F8C6B8D6B8A51955F06
:101680008B51965B8C51975B8D51985B000E44ECAF
:1016900012F001019B51020D8E0EF324D96E010E42
:1016A000F420DA6E38C0DEFF39C0DDFF9B51020D39
:1016B0008E0EF324D96E010EF420DA6EDECF88F19F
:1016C000DDCF89F18851952789519623000E972304
:1016D000000E9823010E9B259C6F9D6B000E9D2391
:1016E000000E9F6F030E9E6F8DEC0EF001019C515A
:1016F0009B6F95C138F096C139F097C13AF098C107
:101700003BF0030E3C6E000E3D6E000E3E6E000E72
:101710003F6EE5EC0EF038C099F139C09AF1010145
:101720009905020E9A59D8A098EF0BF09AEF0BF09A
:101730009DEF0BF08C849EEF0BF08C9499C188F197
:101740009AC189F1D89089338833D8908933883306
:101750008851946F590E386E010E396E94C13AF06B
:1017600031EC0EF0000E0101B96F190EB86F83EC69
:1017700008F02BEF0BF01200316E7E0E3164C3EFD8
:101780000BF0C5EF0BF0CBEF0BF0000E296E000E47
:101790002A6E4AEF0CF0090E326E010E336E32C023
:1017A000D9FF33C0DAFFDF50306E30507F0B2B6E25
:1017B0002B042F6E3050D8A4E0EF0BF0E2EF0BF0CB
:1017C000E4EF0BF0C5EF0BF030BEE9EF0BF0EBEF01
:1017D0000BF002EF0CF031502F5CD8B0F2EF0BF0B1
:1017E000F4EF0BF00DEF0CF032C021F033C022F01B
:1017F000C5EC0DF00009D8A400EF0CF002EF0CF0DE
:1018000048EF0CF030507F0B2B6E2B50010DF35036
:101810003226F4503322CFEF0BF02F503118D8A4DA
:1018200014EF0CF016EF0CF023EF0CF032C0D9FFE0
:1018300033C0DAFFDF8E010E3224296E000E332012
:101840002A6E4AEF0CF03150810F32C0D9FF33C0FD
:10185000DAFFDF6E010E32242D6E000E33202E6E65
:1018600031502B6E2C6A010E2B26000E2C222B5091
:1018700032262C50332231502F5C32C0D9FF33C076
:10188000DAFFDF6E2DC029F02EC02AF04AEF0CF0EF
:10189000CFEF0BF01200F29EB8C1D9FFB9C1DAFF49
:1018A000DF50D8B456EF0CF058EF0CF0D4EF0CF03A
:1018B00024EE83F0010100EE01F0B851E926B951A0
:1018C000EA22DE50EE18D8A468EF0CF06AEF0CF0B4
:1018D000D4EF0CF020EE06F0B851D926B951DA2237
:1018E000DF50D8B476EF0CF078EF0CF0C8EF0CF0C6
:1018F00020EE02F0B851D926B951DA22DF50BE6F7E
:10190000010EBF6F9FEF0CF0BF51B825BA6F000EEC
:10191000B921BB6F020EBA25D96E000EBB21DA6E5B
:10192000BF51B825BC6F000EB921BD6F010EBC259B
:10193000E96E000EBD21EA6EDFCFEFFFBF2B20EE78
:1019400006F0B851D926B951DA22DE50BF5DD8A0D1
:10195000ACEF0CF0AEEF0CF084EF0CF020EE06F0E4
:10196000B851D926B951DA22DF0620EE01F0B8517C
:10197000D926B951DA22BEC1DFFFBE516B0D6E0E02
:10198000F324D96E020EF420DA6EDF6AD4EF0CF085
:10199000B8C1D9FFB9C1DAFFDF6A20EE01F0B85152
:1019A000D926B951DA22DF6AF28E12000101B8514C
:1019B000B911D8B4DEEF0CF0E0EF0CF04EEF0DF003
:1019C000220EB81907E1260EB919D8A4EAEF0CF0D7
:1019D000ECEF0CF0EEEF0CF04EEF0DF0F29EC06B62
:1019E00042EF0DF0C0516B0D6F0EF324D96E020E55
:1019F000F420DA6EB851DE1807E1B951DE18D8A428
:101A000004EF0DF006EF0DF041EF0DF0C0C1C1F194
:101A100020EF0DF0C1516B0DD70EF324D96E020EDD
:101A2000F420DA6EC1516B0D6C0EF324E96E020ED8
:101A3000F420EA6E6A0EDBCFEBFFE806FCE2C12B76
:101A400084C4BAF1FF0EBA25BB6FBC6BFF0EBC237A
:101A5000C151BD6FBE6BBB51BD5DBE51800ABF6F32
:101A6000BC51800ABF59D8A038EF0DF03AEF0DF005
:101A70000AEF0DF084C4E8FFFF0FE8CF84F44DEFC8
:101A80000DF0C02B24EE84F0DE50C05DD8A04BEFEB
:101A90000DF04DEF0DF0F2EF0CF0F28E1200E65269
:101AA000E652E652FF0EE36AFE0EE36AFD0EE36ABB
:101AB000E32A97EF0DF0FD0EE3506B0D6E0EF3244D
:101AC000D96E020EF420DA6EDF50D8A46AEF0DF062
:101AD0006CEF0DF095EF0DF0FD0EE3506B0D6D0EFC
:101AE000F324D96E020EF420DA6EFF0EE3CF01F07C
:101AF000DE50015CD8B07FEF0DF081EF0DF095EF77
:101B00000DF0FD0EE3506B0D6D0EF324D96E020E39
:101B1000F420DA6EDF500C6EFF0E0CC0E3FFFD0EFA
:101B2000E3CF01F0FE0E01C0E3FFFD0EE32A24EE39
:101B300084F0FD0EE3CF01F0DE50015CD8A0A3EFEE
:101B40000DF0A5EF0DF05BEF0DF0FE0EE350D8A405
:101B5000ACEF0DF0AEEF0DF0BCEF0DF0FF0EE3506B
:101B6000D8A4B5EF0DF0B7EF0DF0BCEF0DF0000EFF
:101B7000E8CF83F4C1EF0DF0FE0EE3CF0CF00CC004
:101B800083F4E552E552E552120021C0D9FF22C08C
:101B9000DAFFDF50236E23502124246E000E222012
:101BA000256E21C0D9FF22C0DAFFDF50276E24C086
:101BB000D9FF25C0DAFFDF50286E2850D8A4E3EF04
:101BC0000DF0E5EF0DF0E8EF0DF0000E30EF0EF048
:101BD00027BEEDEF0DF0EFEF0DF0E5EF0DF028AEC5
:101BE000F4EF0DF0F6EF0DF0F8EF0DF0E5EF0DF07E
:101BF00027507F0B7F0AD8A400EF0EF002EF0EF003
:101C000004EF0EF0E5EF0DF027502824266E7F0E2E
:101C100026640DEF0EF00FEF0EF029EF0EF021C04D
:101C2000D9FF22C0DAFF7F0EDF6E7F0E2126000E65
:101C300022222850010DF3502426F4502522215051
:101C4000245C21C0D9FF22C0DAFFDF6E7F0E30EFA7
:101C50000EF021C0D9FF22C0DAFF26C0DFFFDF501F
:101C60001200F29E050E38240101B86F000E3920D3
:101C7000B96F01EC04F0140E382401019C6F000EC2
:101C800039209D6F8FEC05F020EE04F03850D926F6
:101C90003950DA22DF500101856F38C0D9FF39C0D1
:101CA000DAFFDECF86F1DDCF87F185518625D96E4B
:101CB000000E8721DA6E3AC0DFFF20EE04F03850C4
:101CC000D9263950DA2200EE04F03850E92639508E
:101CD000EA22EF50856F010E85259C6F9D6B000EEB
:101CE0009D23000E9F6F030E9E6F8DEC0EF0010181
:101CF0009C51DF6E0C0E38249C6F000E39209D6FB6
:101D000038EC0FF0050E38240101B86F000E3920B1
:101D1000B96F4BEC0CF0F28E12000101A16B9DBF6C
:101D200096EF0EF094EF0EF09CEF0EF09C6D9D1F61
:101D3000D8B09D2B010EA16F9FBFA3EF0EF0A1EFB6
:101D40000EF0A7EF0EF09E6D9F1FD8B09F2B9E51F7
:101D50009F11D8B4AEEF0EF0B0EF0EF0D4EF0EF04E
:101D6000010EA06FB8EF0EF0D8909E379F37A02BD2
:101D70009FAFBDEF0EF0BFEF0EF0B4EF0EF09E512F
:101D80009C5D9F519D59D8A0C8EF0EF0CAEF0EF090
:101D9000CEEF0EF09E519C5F9F519D5BD8909F337C
:101DA0009E33A02FBFEF0EF0A151D8B4DAEF0EF0A2
:101DB000DCEF0EF0E0EF0EF09C6D9D1FD8B09D2B78
:101DC0009CC19CF19DC19DF11200000E01017C6F30
:101DD000000E7D6F000E7E6F000E7F6F3C503D1039
:101DE0003E103F10D8B4F7EF0EF0F9EF0EF02FEFE2
:101DF0000FF0010E806F03EF0FF0D8903C363D36A8
:101E00003E363F36802B3FAE08EF0FF00AEF0FF063
:101E1000FDEF0EF0D8907C377D377E377F373C5012
:101E2000385C3D5039583E503A583F503B58D8A046
:101E30001CEF0FF01EEF0FF027EF0FF03C50385E55
:101E40003D50395A3E503A5A3F503B5A7C81D890C7
:101E50003F323E323D323C32802F0AEF0FF07CC1E0
:101E600038F07DC139F07EC13AF07FC13BF01200FD
:101E7000F29E9CC1D9FF9DC1DAFFDE2A000EDD2251
:101E80009CC1D9FF9DC1DAFF010EDBBE53EF0FF0FD
:101E9000010EDB5006E1DE04D8B051EF0FF053EF36
:101EA0000FF084EF0FF0010120EE07F09C51D926CE
:101EB0009D51DA22DF509E6F9E519C259F6F000E30
:101EC0009D21A06F020E9F25D96E000EA021DA6E13
:101ED000DF50A16FA1516B0D6E0EF324D96E020E6F
:101EE000F420DA6EDF6A20EE07F09C51D9269D516E
:101EF000DA2200EE07F09C51E9269D51EA22EF50CC
:101F00009E6F9E29030BDF6EF28E1200F29E0C0E66
:101F10000101A5259C6F000EA6219D6F8FEC05F099
:101F2000010120EE03F0A551D926A651DA22DF5097
:101F3000A96FA5C1D9FFA6C1DAFFDECFAAF1DDCF17
:101F4000ABF1A951AA25D96E000EAB21DA6EA7C15B
:101F5000E9FFA8C1EAFFDFCFEFFF20EE03F0A551B4
:101F6000D926A651DA2200EE03F0A551E926A651A2
:101F7000EA22EF50A96F010EA9259C6F9D6B000E00
:101F80009D23000E9F6F030E9E6F8DEC0EF00101DE
:101F90009C51DF6E140EA5259C6F000EA6219D6F2F
:101FA00038EC0FF0F28E1200010E0101086F04EF01
:101FB00010F08C868CB8DFEF0FF0E2EF0FF0010E1F
:101FC000E3EF0FF0000EFF0A0101C26FC23B8C501D
:101FD000C219EF0BC2198C6E750EB86F010EB96F76
:101FE00001EC04F0000E0101076F000E066F750E84
:101FF000B86F010EB96F4BEC0CF0000E0101B96F18
:10200000640EB86F83EC08F081A009EF10F00BEFBD
:1020100010F0D9EF0FF08C968C980101086B466A8E
:10202000A80EB86F1F0EB96FD6EC0CF0D4EC09F007
:102030008C8416EF10F01200010E236E57EF10F093
:1020400023506B0D710EF324D96E020EF420DA6E5C
:10205000DE50DE10D8B42FEF10F031EF10F056EF55
:1020600010F023506B0D710EF324D96E020EF42084
:10207000DA6EDE06000EDD5A23506B0D710EF3246E
:10208000D96E020EF420DA6EDE50DE10D8A44BEFCB
:1020900010F04DEF10F056EF10F023506B0D6E0E58
:1020A000F324D96E020EF420DA6EDF6A232A24EEBE
:1020B00084F0DE50235CD8A060EF10F062EF10F0E7
:1020C00020EF10F01200010ED3EC12F0750E01019A
:1020D000B86F010EB96F01EC04F001010851D8B4DA
:1020E00074EF10F076EF10F07CEF10F0000EB76F89
:1020F000000EB66F80EF10F006C1B6F107C1B7F160
:10210000750EB86F010EB96F4BEC0CF00101B705FD
:10211000D8A08DEF10F08FEF10F097EF10F0000EB9
:10212000AE6FAD69010EE9EC10F09EEF10F0B6C194
:10213000ADF1B7C1AEF1010EE9EC10F0000E0101F6
:10214000B96F050EB86F83EC08F066EF10F012005F
:102150003650BCEC0BF034C0D9FF35C0DAFF29C0D3
:10216000DEFF2AC0DDFF20EE02F03450D9263550C4
:10217000DA2236C0DFFF20EE03F03450D926355086
:10218000DA22DF6A20EE04F03450D9263550DA2204
:10219000DF6A050E3424216E000E3520226EABEC72
:1021A00012F00C0E3424216E000E3520226E000E2B
:1021B000246E000E236E80EC12F0140E3424216E77
:1021C000000E3520226E36C023F0246A80EC12F017
:1021D00012000101B16F0101B105D8A4F2EF10F0B6
:1021E000F4EF10F028EF11F0CB50AF6FB06BD89038
:1021F000AF37B037D890AF37B037040EAF25B26FD6
:10220000000EB021B36FAD51B25DAE51B359D8B02D
:102210000CEF11F00EEF11F012EF11F0B2C1ADF1B1
:10222000B3C1AEF1ADC1AFF1AEC1B0F1D890B03332
:10223000AF33D890B033AF33AF51BE6EADC1AFF155
:10224000030EAF17AF3BBD50AF19CF0BAF19BD6E2B
:102250001200590E346E010E356E0A0E366EA8EC61
:1022600010F0750E216E010E226EABEC12F0FBEC3D
:1022700012F0959495969598959E8C6A9380000E91
:10228000216E000E97EC12F0030E216E2A0E226EC4
:10229000160E236E010EC5EC11F0020E216E360EE5
:1022A000226E240E236E020EC5EC11F0010E216E7B
:1022B000C60E226E200E236E030EC5EC11F0120026
:1022C000090E216E010E226E000E246E4F0E236E3B
:1022D000245009E1800E235CD8A071EF11F073EF58
:1022E00011F085EF11F021C0D9FF22C0DAFF7F0E77
:1022F000DF6E7F0E2126000E2222810E2324236E04
:10230000FF0E2420246E68EF11F021C0D9FF22C0F7
:10231000DAFF23C0DFFF23502124D96E245022206E
:10232000DA6EDF6A1200F2A298EF11F09AEF11F064
:10233000C4EF11F0F292020E266E380E256EAD0E2D
:10234000E82EFED7252EFCD7262EFAD7000081B026
:10235000ACEF11F0AEEF11F0C4EF11F04650D8A47D
:10236000B4EF11F0B6EF11F0C4EF11F0010E01015E
:10237000086F010E466E040E216EA80E226E1F0E0F
:10238000236E040EF0EC11F012000201006F00C287
:1023900001F221C002F222C004F223C005F20201C0
:1023A0006B6B000E076F000E066F036B0A6B086BFA
:1023B000096B22EE01F084C424F024506B0D6C0EE6
:1023C000F324E96E020EF420EA6E6A0EDBCFEBFF17
:1023D000E806FCE284C4E8FF010FE8CF84F41200B1
:1023E0000001606F60C061F021C062F022C064F043
:1023F00023C065F00001CB6B000E676F000E666FA7
:10240000636B6A6B686B696B20EE61F084C424F0C7
:1024100024506B0D6C0EF324E96E020EF420EA6E6C
:102420006A0EDBCFEBFFE806FCE284C4E8FF010F95
:10243000E8CF84F41200590E0101A56F010EA66FBA
:10244000AC0EA76F010EA86F86EC0FF0750E0101A0
:10245000B86F010EB96F01EC04F00101AC51040D2D
:10246000F3CF06F1F4CF07F1750EB86F010EB96F17
:102470004BEC0CF0000E0101B96F0A0EB86F83EC43
:1024800008F01BEF12F012003C6E3CC03AF03A46E6
:102490003A46C2503A18C30B3A18C26E280EE82EBC
:1024A000FED7C282C2B257EF12F059EF12F052EFCC
:1024B00012F0C350C4CF3AF03B6A3AC03BF03A6ADC
:1024C0003A10386E3B50396E120002EE6CF022EE7C
:1024D0001BF0EE6ADD50D950FCE1DA50FAE101EE72
:1024E00000F07C0EEE6AE806FDE100EE40F0070E1B
:1024F000EE6AE806FDE1000EF86E0001F3EF12F05F
:1025000021C0D9FF22C0DAFF23C0DEFF24C0DDFFD7
:1025100020EE06F02150D9262250DA22DF6A20EE82
:1025200007F02150D9262250DA22DF6A1200226EEB
:102530002250D8A49EEF12F0A0EF12F0A8EF12F0F4
:10254000938021B002D0F19C01D0F18CF288F292FC
:10255000F28CF28E120021C0D9FF22C0DAFFDF6AAE
:1025600020EE01F02150D9262250DA22DF6A20EE37
:1025700006F02150D9262250DA22DF6A1200000E1E
:10258000E8CF84F4000EE8CF83F4000E216E220E13
:10259000226E260E236E000EC5EC11F0E5EC12F053
:1025A00060EC11F012000101AD6F0101AD05D8A47E
:1025B000DCEF12F0DEEF12F0E4EF12F094940C0E68
:1025C000BD6E040ECA6ECB681200F28CF28AF294D1
:1025D000D59AD596D550F80B0509D56E000ED76E55
:1025E000000ED66E1200BFEC12F00BEC13F0F7EFFA
:1025F00012F006EF00F09280010EC26E0E0EC16E58
:10260000AA0EC06E12009280010EC26E0E0EC16E36
:10261000AA0EC06E120029EC11F0F28E18EC13F025
:102620001200000011EF13F012004FEC0DF0120039
:04263000D58E120031
:00000001FF
