:1000000000020400000000008003000080030000E4
:1000100080030000800300008003000080030000D4
:1000200080030000800300008003000080030000C4
:1000300080030000D4020000800300008003000061
:1000400080030000800300008003000080030000A4
:100050008003000080030000800300008003000094
:100060008003000080030000800300008003000084
:100070008003000080030000800300008003000074
:100080008003000080030000800300008003000064
:100090008003000080030000800300008003000054
:1000A0008003000080030000800300008003000044
:1000B0008003000080030000800300008003000034
:1000C0008003000080030000800300008003000024
:1000D0008003000080030000800300008003000014
:1000E0008003000080030000800300008003000004
:1000F00080030000800300008003000080030000F4
:1001000080030000800300008003000080030000E3
:1001100080030000800300008003000080030000D3
:1001200080030000800300008003000080030000C3
:080130008003000080030000C1
:1002080080030000800300008003000080030000DA
:1002180080030000800300008003000080030000CA
:10022800800300008003000080030000D402000067
:1002380080030000800300008003000080030000AA
:10024800800300008003000080030000800300009A
:10025800800300008003000080030000800300008A
:10026800800300008003000080030000800300007A
:10027800800300008003000080030000800300006A
:10028800800300008003000080030000800300005A
:10029800800300008003000080030000800300004A
:1002A800800300008003000080030000800300003A
:1002B800800300008003000080030000800300002A
:1002C800800300008003000080030000800300001A
:1002D800800300008003000080030000800300000A
:1002E80080030000800300008003000080030000FA
:1002F80080030000800300008003000080030000EA
:1003080080030000800300008003000080030000D9
:1003180080030000800300008003000080030000C9
:1003280080030000800300008003000080030000B9
:10040000CFB120000E7F22000E0188000000000006
:10041000000020000000E000020032000001200087
:100420002002880014000700B70007000000E00069
:1004300003003A00E05F20000100200002003700C6
:100440000000200001002000810F70000100320038
:1004500014000700000020000000E000020032004D
:1004600000000200000000009203020000000000F3
:100470000040DA000000FE004440A9000000200017
:100480000000E0000300320000002000A00188000E
:100490004440A800000006008A1F78008B1F7800E7
:1004A0000000060091018800800478000000EB0045
:1004B0001A003700E284440032A0B4009905BA0063
:1004C000E284440032A0B4009906BA00E2844400F9
:1004D00032A0B4000006EB00476FDE00FD07B2005B
:1004E000636CE10003003A00EBFF07000000EB0043
:1004F0000A003700606CE10004003A00005DEB0088
:100500008B05E900FDFF3E00040037006168E10053
:10051000010032000086EB000B00070019C7BA008B
:100520001905BA000E04E00003003A000A00E000DA
:10053000E0FF3A0000000600FE07B2009E018800BE
:100540008A047800F5FF3700395DBA008B05E900B1
:100550000C003200295DBA008B05E900080032006A
:100560000C00E00003003A00E284440032A0B40032
:10057000F5FF370019DDBA008B05E900FAFF3A00F4
:100580008904E800E184440032A0B40000000600C1
:100590007C05040000000000980504000000000035
:1005A000B2050400000000003600F800809FBE0085
:1005B000829FBE00849FBE00869FBE003400F8006C
:1005C00000002000A00188000000FA008460A9005B
:1005D00040062000100888000140800080102000A4
:1005E0000088B900000078008080E800408020008A
:1005F0000080400010007800E10F50001F003A001A
:100600004400F8004200F8003600F8003400F8001A
:100610003200F800811F7800829FBE00849FBE00D8
:10062000869FBE00889FBE008A9FBE008C9FBE0032
:100630008E1F780001408000801020000088B900E3
:1006400000007800E400400040802000008040006E
:1006500010007800000078000F087800014080004A
:10066000801020000088B9008000780060802000A1
:10067000008040008000EB000108780013010700B3
:100680000040880001408000801020000088B900F0
:1006900000007800E400400040802000008040001E
:1006A0001000780000007800900778004F0778006D
:1006B0004F06BE004F05BE004F04BE004F03BE00F4
:1006C0004F02BE004F01BE00CF0078003200F9009B
:1006D0003400F9003600F9004200F9004400F90046
:1006E0000080FA003400F9004F03BE004F02BE0044
:1006F0004F01BE004F00BE003600F900004006006A
:100700000040DA000000FE00000005000000FA00D2
:10071000CDC2A900D802A900D822A9000080FA0001
:10072000000006000000FA001C010700F7FF0700A8
:10073000C05720000001780031C0B30010C0B300E2
:100740000F000700805920000001780021C0B3008D
:1007500020C0B3000A000700205B200000017800E1
:1007600011C0B30030C0B300050007000600FC0054
:1007700011028000F141B20011028800FFFF370032
:100780000600FA0020479800314798002207980099
:1007900011408000801020000088B900800078009F
:1007A0004080200000804000AE409000014878006A
:1007B00011408000801020000088B900800078007F
:1007C0004080200000804000BE4090001140980012
:1007D00011408000801020000088B900800078005F
:1007E00060802000008040008000EB00010878005D
:1007F00011408000801020000088B900800078003F
:10080000A080200000804000AE0090000108780029
:100810001340800011408000801020000088B90043
:10082000000078006110200080804000408020009F
:1008300000814000801020000098B90080007800FE
:100840008080200000804000020878001240800074
:10085000801020000090B90000007800E400400003
:100860004080200080814000801020000090B9006E
:1008700000007800E400400040802000008040003C
:1008800010007800AE009000010878000080E900B8
:100890008009780012408000801020000090B9008C
:1008A00000007800E400400040802000808140008B
:1008B000801020000090B90000007800E4004000A3
:1008C0004080200000804000100078008000EB0095
:1008D000010878000080E90080097800124080005B
:1008E000801020000090B90000007800E400400073
:1008F0004080200080814000801020000090B900DE
:1009000000007800E40040004080200000804000AB
:100910001000780021028000010878000080E900C2
:100920008009780012408000801020000090B900FB
:1009300000007800E40040004080200080814000FA
:10094000801020000090B90000007800E400400012
:1009500040802000008040001000780011028000DC
:10096000010878000080E9008009780012408000CA
:10097000801020000090B90000007800E4004000E2
:100980004080200080814000801020000090B9004D
:1009900000007800E400400040802000008040001B
:1009A00010007800B1018000010878000080E900A3
:1009B0008009780012408000801020000090B9006B
:1009C00000007800E400400040802000808140006A
:1009D000801020000090B90000007800E400400082
:1009E000408020000080400010007800410320007B
:1009F000914078008180FB00010878000080E900C8
:100A00008009780012408000801020000090B9001A
:100A100000007800E4004000408020008081400019
:100A2000801020000090B90000007800E400400031
:100A3000408020000080400010007800210320004A
:100A4000914078008180FB00010878000080E90077
:100A5000800978000000EB00000F780013003700D9
:100A600012408000801020000090B9000000780043
:100A7000E400400040802000808140008010200081
:100A80000090B90000007800E400400040802000A1
:100A900000804000100078008000EB000108780022
:100AA0000080E900800978001E0FE8001E00780031
:100AB000EF0F5000EAFF3400104080000000E80013
:100AC000104088000080FA00000006000000FA00D4
:100AD000004080000001E800B0AA2A000010B80021
:100AE0000100D1006300B90000007800000051004F
:100AF0000080FA00000006000000FA007016800076
:100B00004E00DE006140600000C0EA00614060000D
:100B10000080FB00610060004E00DD008116800057
:100B200001E0A1000100700080168800F3FF37008B
:100B30000000FA00D016800000407800614060009C
:100B400000C0EA00614060000080FB0061006000BE
:100B5000E11680000100A10001007000E01688008D
:100B6000F4FF37000000FA00D01680000000D1002A
:100B70006140600000C0EA00614060000080FB004E
:100B80006100600000004000E11680000110A1003B
:100B900001007000E0168800F3FF37000000FA0043
:100BA0009460A80021058000F0FF2800008060000C
:100BB00000E0A000200588008460A90011028000E8
:100BC000F0F12F00008060000070A000100288008B
:100BD0000421A90021088000F0FC2F0000806000A3
:100BE0000050A0002008880005E1A8004006200071
:100BF000100888000080FA000000060004080000C9
:100C000018030000000000000008000004000000BD
:080C10000000000000000000DC
:00000001FF
